{
  "transactions": [
    {
      "hash": "0x24ba9547e8470aa0ac818b3d38e382d793874e37807a38b8ebc394bc7df13a7d",
      "transactionType": "CALL",
      "contractName": null,
      "contractAddress": "0xcd0048a5628b37b8f743cc2fea18817a29e97270",
      "function": null,
      "arguments": null,
      "transaction": {
        "from": "0xf39fd6e51aad88f6f4ce6ab8827279cfffb92266",
        "to": "0xcd0048a5628b37b8f743cc2fea18817a29e97270",
        "gas": "0xb717",
        "value": "0x0",
        "input": "0x40c10f19000000000000000000000000f39fd6e51aad88f6f4ce6ab8827279cfffb922660000000000000000000000000000000000000000000000008ac7230489e80000",
        "nonce": "0x189",
        "chainId": "0x539"
      },
      "additionalContracts": [],
      "isFixedGasLimit": false
    },
    {
      "hash": "0x697e02c2fc6177166d2810b488d76f8f0a5906463c226eb4f502bd76c5b579db",
      "transactionType": "CALL",
      "contractName": null,
      "contractAddress": "0x976c214741b4657bd99dfd38a5c0e3ac5c99d903",
      "function": null,
      "arguments": null,
      "transaction": {
        "from": "0xf39fd6e51aad88f6f4ce6ab8827279cfffb92266",
        "to": "0x976c214741b4657bd99dfd38a5c0e3ac5c99d903",
        "gas": "0xb6f7",
        "value": "0x0",
        "input": "0x40c10f19000000000000000000000000f39fd6e51aad88f6f4ce6ab8827279cfffb9226600000000000000000000000000000000000000000000000000000002540be400",
        "nonce": "0x18a",
        "chainId": "0x539"
      },
      "additionalContracts": [],
      "isFixedGasLimit": false
    },
    {
      "hash": "0x5508841ed286556a4a62dd5fb11e8bea2c9b83c344770a4479efdfb96ba1bdb1",
      "transactionType": "CALL",
      "contractName": null,
      "contractAddress": "0xcd0048a5628b37b8f743cc2fea18817a29e97270",
      "function": "approve(address,uint256)",
      "arguments": [
        "0x9bF8de4D71495eB9b14c983B4E368B54A5c8F5FC",
        "5000000000000000000"
      ],
      "transaction": {
        "from": "0xf39fd6e51aad88f6f4ce6ab8827279cfffb92266",
        "to": "0xcd0048a5628b37b8f743cc2fea18817a29e97270",
        "gas": "0xf814",
        "value": "0x0",
        "input": "0x095ea7b30000000000000000000000009bf8de4d71495eb9b14c983b4e368b54a5c8f5fc0000000000000000000000000000000000000000000000004563918244f40000",
        "nonce": "0x18b",
        "chainId": "0x539"
      },
      "additionalContracts": [],
      "isFixedGasLimit": false
    },
    {
      "hash": "0x70b6ba9c65a5fc62606c444b9c73daf3bb05607117f0fc2c8a3cda009a21caa2",
      "transactionType": "CALL",
      "contractName": null,
      "contractAddress": "0x9bf8de4d71495eb9b14c983b4e368b54a5c8f5fc",
      "function": "supply(address,uint256,address,uint16)",
      "arguments": [
        "0xcD0048A5628B37B8f743cC2FeA18817A29e97270",
        "5000000000000000000",
        "0xf39Fd6e51aad88F6F4ce6aB8827279cffFb92266",
        "0"
      ],
      "transaction": {
        "from": "0xf39fd6e51aad88f6f4ce6ab8827279cfffb92266",
        "to": "0x9bf8de4d71495eb9b14c983b4e368b54a5c8f5fc",
        "gas": "0x52fbb",
        "value": "0x0",
        "input": "0x617ba037000000000000000000000000cd0048a5628b37b8f743cc2fea18817a29e972700000000000000000000000000000000000000000000000004563918244f40000000000000000000000000000f39fd6e51aad88f6f4ce6ab8827279cfffb922660000000000000000000000000000000000000000000000000000000000000000",
        "nonce": "0x18c",
        "chainId": "0x539"
      },
      "additionalContracts": [],
      "isFixedGasLimit": false
    },
    {
      "hash": "0xd1408959c4f079d74612fef0ccb88c3f4bd9f46298e962398bee81ad494fcb9c",
      "transactionType": "CALL",
      "contractName": null,
      "contractAddress": "0x9bf8de4d71495eb9b14c983b4e368b54a5c8f5fc",
      "function": "borrow(address,uint256,uint256,uint16,address)",
      "arguments": [
        "0x976C214741b4657bd99DFD38a5c0E3ac5C99D903",
        "1000000000",
        "2",
        "0",
        "0xf39Fd6e51aad88F6F4ce6aB8827279cffFb92266"
      ],
      "transaction": {
        "from": "0xf39fd6e51aad88f6f4ce6ab8827279cfffb92266",
        "to": "0x9bf8de4d71495eb9b14c983b4e368b54a5c8f5fc",
        "gas": "0x5c776",
        "value": "0x0",
        "input": "0xa415bcad000000000000000000000000976c214741b4657bd99dfd38a5c0e3ac5c99d903000000000000000000000000000000000000000000000000000000003b9aca0000000000000000000000000000000000000000000000000000000000000000020000000000000000000000000000000000000000000000000000000000000000000000000000000000000000f39fd6e51aad88f6f4ce6ab8827279cfffb92266",
        "nonce": "0x18d",
        "chainId": "0x539"
      },
      "additionalContracts": [],
      "isFixedGasLimit": false
    }
  ],
  "receipts": [
    {
      "status": "0x1",
      "cumulativeGasUsed": "0x848f",
      "logs": [
        {
          "address": "0xcd0048a5628b37b8f743cc2fea18817a29e97270",
          "topics": [
            "0xddf252ad1be2c89b69c2b068fc378daa952ba7f163c4a11628f55a4df523b3ef",
            "0x0000000000000000000000000000000000000000000000000000000000000000",
            "0x000000000000000000000000f39fd6e51aad88f6f4ce6ab8827279cfffb92266"
          ],
          "data": "0x0000000000000000000000000000000000000000000000008ac7230489e80000",
          "blockHash": "0x17bceff4050c3b51ce942a0083e3296ae00c22cbb99bf9788b9b6a49eb503f50",
          "blockNumber": "0x786",
          "transactionHash": "0x24ba9547e8470aa0ac818b3d38e382d793874e37807a38b8ebc394bc7df13a7d",
          "transactionIndex": "0x0",
          "logIndex": "0x0",
          "removed": false
        }
      ],
      "logsBloom": "0x00000000000000000000000000000000000000000000000000000000000000000000000000000000000000000000000000000000000000000000000000000000000000000000000000002008000000000000000000000020000040000000000000000000020000000000000100000800000000000000000000000010000000000000000000000000000000000000000000000000000000000000000000000000000000000000000000000000000000000000000000000000000000000000000000000002000000200000000000000000000000002000000000000000000020000000000000000000000000000000000000000000000000000000000000000000",
      "type": "0x2",
      "transactionHash": "0x24ba9547e8470aa0ac818b3d38e382d793874e37807a38b8ebc394bc7df13a7d",
      "transactionIndex": "0x0",
      "blockHash": "0x17bceff4050c3b51ce942a0083e3296ae00c22cbb99bf9788b9b6a49eb503f50",
      "blockNumber": "0x786",
      "gasUsed": "0x848f",
      "effectiveGasPrice": "0x8",
      "from": "0xf39fd6e51aad88f6f4ce6ab8827279cfffb92266",
      "to": "0xcd0048a5628b37b8f743cc2fea18817a29e97270",
      "contractAddress": null
    },
    {
      "status": "0x1",
      "cumulativeGasUsed": "0x10906",
      "logs": [
        {
          "address": "0x976c214741b4657bd99dfd38a5c0e3ac5c99d903",
          "topics": [
            "0xddf252ad1be2c89b69c2b068fc378daa952ba7f163c4a11628f55a4df523b3ef",
            "0x0000000000000000000000000000000000000000000000000000000000000000",
            "0x000000000000000000000000f39fd6e51aad88f6f4ce6ab8827279cfffb92266"
          ],
          "data": "0x00000000000000000000000000000000000000000000000000000002540be400",
          "blockHash": "0x17bceff4050c3b51ce942a0083e3296ae00c22cbb99bf9788b9b6a49eb503f50",
          "blockNumber": "0x786",
          "transactionHash": "0x697e02c2fc6177166d2810b488d76f8f0a5906463c226eb4f502bd76c5b579db",
          "transactionIndex": "0x1",
          "logIndex": "0x0",
          "removed": false
        }
      ],
      "logsBloom": "0x00000000000000000000000000000000000000000000000000000000000000000000000000000000000000000000000000000000000004000000000000000000000000000000040000000008000000000000000000000000000000000000000000000000020000000000000100000800000000000000000000000010000000000000000000000000000000000000000000000000000000000000000000000004000000000000000000000000000000000000000000000000000000000000000000000002000000200000000000000000000000002000000000000000000020000000000000000000000000000000000000000000000000000000000000000000",
      "type": "0x2",
      "transactionHash": "0x697e02c2fc6177166d2810b488d76f8f0a5906463c226eb4f502bd76c5b579db",
      "transactionIndex": "0x1",
      "blockHash": "0x17bceff4050c3b51ce942a0083e3296ae00c22cbb99bf9788b9b6a49eb503f50",
      "blockNumber": "0x786",
      "gasUsed": "0x8477",
      "effectiveGasPrice": "0x8",
      "from": "0xf39fd6e51aad88f6f4ce6ab8827279cfffb92266",
      "to": "0x976c214741b4657bd99dfd38a5c0e3ac5c99d903",
      "contractAddress": null
    },
    {
      "status": "0x1",
      "cumulativeGasUsed": "0x1bca2",
      "logs": [
        {
          "address": "0xcd0048a5628b37b8f743cc2fea18817a29e97270",
          "topics": [
            "0x8c5be1e5ebec7d5bd14f71427d1e84f3dd0314c0f7b2291e5b200ac8c7c3b925",
            "0x000000000000000000000000f39fd6e51aad88f6f4ce6ab8827279cfffb92266",
            "0x0000000000000000000000009bf8de4d71495eb9b14c983b4e368b54a5c8f5fc"
          ],
          "data": "0x0000000000000000000000000000000000000000000000004563918244f40000",
          "blockHash": "0x17bceff4050c3b51ce942a0083e3296ae00c22cbb99bf9788b9b6a49eb503f50",
          "blockNumber": "0x786",
          "transactionHash": "0x5508841ed286556a4a62dd5fb11e8bea2c9b83c344770a4479efdfb96ba1bdb1",
          "transactionIndex": "0x2",
          "logIndex": "0x0",
          "removed": false
        }
      ],
      "logsBloom": "0x00008000000000000000000000000000000000000000000000000000000000000000000000400000000000000000000000200000000000000000000000200000000000000000000000002000000000000000000000000020000040000000000000000000000000000000000100000000000000000000000000000000000000000000000000000000000000000000000000000000000000000000000000000000020000000000000000000000000000000000000000000000000000000000000000000000000000200000000000000000000000002000000000000000000000000010000000000000000000000000000000000000000000000000000000000000",
      "type": "0x2",
      "transactionHash": "0x5508841ed286556a4a62dd5fb11e8bea2c9b83c344770a4479efdfb96ba1bdb1",
      "transactionIndex": "0x2",
      "blockHash": "0x17bceff4050c3b51ce942a0083e3296ae00c22cbb99bf9788b9b6a49eb503f50",
      "blockNumber": "0x786",
      "gasUsed": "0xb39c",
      "effectiveGasPrice": "0x8",
      "from": "0xf39fd6e51aad88f6f4ce6ab8827279cfffb92266",
      "to": "0xcd0048a5628b37b8f743cc2fea18817a29e97270",
      "contractAddress": null
    },
    {
      "status": "0x1",
      "cumulativeGasUsed": "0x5487c",
      "logs": [
        {
          "address": "0x9bf8de4d71495eb9b14c983b4e368b54a5c8f5fc",
          "topics": [
            "0x804c9b842b2748a22bb64b345453a3de7ca54a6ca45ce00d415894979e22897a",
            "0x000000000000000000000000cd0048a5628b37b8f743cc2fea18817a29e97270"
          ],
          "data": "0x000000000000000000000000000000000000000000000000000000000000000000000000000000000000000000000000000000000017293b0a9e69fd9c00000000000000000000000000000000000000000000000000000000000000000000000000000000000000000000000000000000000000033b2e3c9fd0803ce80000000000000000000000000000000000000000000000033b2e3c9fd0803ce8000000",
          "blockHash": "0x17bceff4050c3b51ce942a0083e3296ae00c22cbb99bf9788b9b6a49eb503f50",
          "blockNumber": "0x786",
          "transactionHash": "0x70b6ba9c65a5fc62606c444b9c73daf3bb05607117f0fc2c8a3cda009a21caa2",
          "transactionIndex": "0x3",
          "logIndex": "0x0",
          "removed": false
        },
        {
          "address": "0xcd0048a5628b37b8f743cc2fea18817a29e97270",
          "topics": [
            "0xddf252ad1be2c89b69c2b068fc378daa952ba7f163c4a11628f55a4df523b3ef",
            "0x000000000000000000000000f39fd6e51aad88f6f4ce6ab8827279cfffb92266",
            "0x00000000000000000000000072f74fdca2d2bf3c618e0fa84e33f0305151be92"
          ],
          "data": "0x0000000000000000000000000000000000000000000000004563918244f40000",
          "blockHash": "0x17bceff4050c3b51ce942a0083e3296ae00c22cbb99bf9788b9b6a49eb503f50",
          "blockNumber": "0x786",
          "transactionHash": "0x70b6ba9c65a5fc62606c444b9c73daf3bb05607117f0fc2c8a3cda009a21caa2",
          "transactionIndex": "0x3",
          "logIndex": "0x1",
          "removed": false
        },
        {
          "address": "0x72f74fdca2d2bf3c618e0fa84e33f0305151be92",
          "topics": [
            "0xddf252ad1be2c89b69c2b068fc378daa952ba7f163c4a11628f55a4df523b3ef",
            "0x0000000000000000000000000000000000000000000000000000000000000000",
            "0x000000000000000000000000f39fd6e51aad88f6f4ce6ab8827279cfffb92266"
          ],
          "data": "0x0000000000000000000000000000000000000000000000004563918244f40000",
          "blockHash": "0x17bceff4050c3b51ce942a0083e3296ae00c22cbb99bf9788b9b6a49eb503f50",
          "blockNumber": "0x786",
          "transactionHash": "0x70b6ba9c65a5fc62606c444b9c73daf3bb05607117f0fc2c8a3cda009a21caa2",
          "transactionIndex": "0x3",
          "logIndex": "0x2",
          "removed": false
        },
        {
          "address": "0x72f74fdca2d2bf3c618e0fa84e33f0305151be92",
          "topics": [
            "0x458f5fa412d0f69b08dd84872b0215675cc67bc1d5b6fd93300a1c3878b86196",
            "0x000000000000000000000000f39fd6e51aad88f6f4ce6ab8827279cfffb92266",
            "0x000000000000000000000000f39fd6e51aad88f6f4ce6ab8827279cfffb92266"
          ],
          "data": "0x0000000000000000000000000000000000000000000000004563918244f4000000000000000000000000000000000000000000000000000000000000000000000000000000000000000000000000000000000000033b2e3c9fd0803ce8000000",
          "blockHash": "0x17bceff4050c3b51ce942a0083e3296ae00c22cbb99bf9788b9b6a49eb503f50",
          "blockNumber": "0x786",
          "transactionHash": "0x70b6ba9c65a5fc62606c444b9c73daf3bb05607117f0fc2c8a3cda009a21caa2",
          "transactionIndex": "0x3",
          "logIndex": "0x3",
          "removed": false
        },
        {
          "address": "0x9bf8de4d71495eb9b14c983b4e368b54a5c8f5fc",
          "topics": [
            "0x00058a56ea94653cdf4f152d227ace22d4c00ad99e2a43f58cb7d9e3feb295f2",
            "0x000000000000000000000000cd0048a5628b37b8f743cc2fea18817a29e97270",
            "0x000000000000000000000000f39fd6e51aad88f6f4ce6ab8827279cfffb92266"
          ],
          "data": "0x",
          "blockHash": "0x17bceff4050c3b51ce942a0083e3296ae00c22cbb99bf9788b9b6a49eb503f50",
          "blockNumber": "0x786",
          "transactionHash": "0x70b6ba9c65a5fc62606c444b9c73daf3bb05607117f0fc2c8a3cda009a21caa2",
          "transactionIndex": "0x3",
          "logIndex": "0x4",
          "removed": false
        },
        {
          "address": "0x9bf8de4d71495eb9b14c983b4e368b54a5c8f5fc",
          "topics": [
            "0x2b627736bca15cd5381dcf80b0bf11fd197d01a037c52b927a881a10fb73ba61",
            "0x000000000000000000000000cd0048a5628b37b8f743cc2fea18817a29e97270",
            "0x000000000000000000000000f39fd6e51aad88f6f4ce6ab8827279cfffb92266",
            "0x0000000000000000000000000000000000000000000000000000000000000000"
          ],
          "data": "0x000000000000000000000000f39fd6e51aad88f6f4ce6ab8827279cfffb922660000000000000000000000000000000000000000000000004563918244f40000",
          "blockHash": "0x17bceff4050c3b51ce942a0083e3296ae00c22cbb99bf9788b9b6a49eb503f50",
          "blockNumber": "0x786",
          "transactionHash": "0x70b6ba9c65a5fc62606c444b9c73daf3bb05607117f0fc2c8a3cda009a21caa2",
          "transactionIndex": "0x3",
          "logIndex": "0x5",
          "removed": false
        }
      ],
      "logsBloom": "0x00000000000008000080000000000400000000000000000000000000000004000000000000000000000000000004000000000000000000000000000000800000000000000000000000002008000000000008000000000028000040040000000000000000020000000000000100000880000000000000000000000010000000000000000080000000000000000000000000000000004000000000000000000000000000000000000001000000000000000000000000000100000000000000012002000002000000200000002040000000000000002000000020000000000020000000000000000000000000000000000040000000000000020000400000000000",
      "type": "0x2",
      "transactionHash": "0x70b6ba9c65a5fc62606c444b9c73daf3bb05607117f0fc2c8a3cda009a21caa2",
      "transactionIndex": "0x3",
      "blockHash": "0x17bceff4050c3b51ce942a0083e3296ae00c22cbb99bf9788b9b6a49eb503f50",
      "blockNumber": "0x786",
      "gasUsed": "0x38bda",
      "effectiveGasPrice": "0x8",
      "from": "0xf39fd6e51aad88f6f4ce6ab8827279cfffb92266",
      "to": "0x9bf8de4d71495eb9b14c983b4e368b54a5c8f5fc",
      "contractAddress": null
    },
    {
      "status": "0x1",
      "cumulativeGasUsed": "0x93c15",
      "logs": [
        {
          "address": "0xe06ae7f123d6bb4ac50218fec91e766be3eeddd8",
          "topics": [
            "0xddf252ad1be2c89b69c2b068fc378daa952ba7f163c4a11628f55a4df523b3ef",
            "0x0000000000000000000000000000000000000000000000000000000000000000",
            "0x000000000000000000000000f39fd6e51aad88f6f4ce6ab8827279cfffb92266"
          ],
          "data": "0x000000000000000000000000000000000000000000000000000000003b9aca00",
          "blockHash": "0x17bceff4050c3b51ce942a0083e3296ae00c22cbb99bf9788b9b6a49eb503f50",
          "blockNumber": "0x786",
          "transactionHash": "0xd1408959c4f079d74612fef0ccb88c3f4bd9f46298e962398bee81ad494fcb9c",
          "transactionIndex": "0x4",
          "logIndex": "0x0",
          "removed": false
        },
        {
          "address": "0xe06ae7f123d6bb4ac50218fec91e766be3eeddd8",
          "topics": [
            "0x458f5fa412d0f69b08dd84872b0215675cc67bc1d5b6fd93300a1c3878b86196",
            "0x000000000000000000000000f39fd6e51aad88f6f4ce6ab8827279cfffb92266",
            "0x000000000000000000000000f39fd6e51aad88f6f4ce6ab8827279cfffb92266"
          ],
          "data": "0x000000000000000000000000000000000000000000000000000000003b9aca0000000000000000000000000000000000000000000000000000000000000000000000000000000000000000000000000000000000033b2e3c9fd0803ce8000000",
          "blockHash": "0x17bceff4050c3b51ce942a0083e3296ae00c22cbb99bf9788b9b6a49eb503f50",
          "blockNumber": "0x786",
          "transactionHash": "0xd1408959c4f079d74612fef0ccb88c3f4bd9f46298e962398bee81ad494fcb9c",
          "transactionIndex": "0x4",
          "logIndex": "0x1",
          "removed": false
        },
        {
          "address": "0x9bf8de4d71495eb9b14c983b4e368b54a5c8f5fc",
          "topics": [
            "0x804c9b842b2748a22bb64b345453a3de7ca54a6ca45ce00d415894979e22897a",
            "0x000000000000000000000000976c214741b4657bd99dfd38a5c0e3ac5c99d903"
          ],
          "data": "0x0000000000000000000000000000000000000000000002ccc731c0c67fd288800000000000000000000000000000000000000000003b307a70786432c78e38e4000000000000000000000000000000000000000000014966d5ec5b38c18e38e40000000000000000000000000000000000000000033b2e3c9fd0803ce80000000000000000000000000000000000000000000000033b2e3c9fd0803ce8000000",
          "blockHash": "0x17bceff4050c3b51ce942a0083e3296ae00c22cbb99bf9788b9b6a49eb503f50",
          "blockNumber": "0x786",
          "transactionHash": "0xd1408959c4f079d74612fef0ccb88c3f4bd9f46298e962398bee81ad494fcb9c",
          "transactionIndex": "0x4",
          "logIndex": "0x2",
          "removed": false
        },
        {
          "address": "0x976c214741b4657bd99dfd38a5c0e3ac5c99d903",
          "topics": [
            "0xddf252ad1be2c89b69c2b068fc378daa952ba7f163c4a11628f55a4df523b3ef",
            "0x0000000000000000000000008fcef412bdae42ebcae7a2390dad2ce41fc2b7f8",
            "0x000000000000000000000000f39fd6e51aad88f6f4ce6ab8827279cfffb92266"
          ],
          "data": "0x000000000000000000000000000000000000000000000000000000003b9aca00",
          "blockHash": "0x17bceff4050c3b51ce942a0083e3296ae00c22cbb99bf9788b9b6a49eb503f50",
          "blockNumber": "0x786",
          "transactionHash": "0xd1408959c4f079d74612fef0ccb88c3f4bd9f46298e962398bee81ad494fcb9c",
          "transactionIndex": "0x4",
          "logIndex": "0x3",
          "removed": false
        },
        {
          "address": "0x9bf8de4d71495eb9b14c983b4e368b54a5c8f5fc",
          "topics": [
            "0xb3d084820fb1a9decffb176436bd02558d15fac9b0ddfed8c465bc7359d7dce0",
            "0x000000000000000000000000976c214741b4657bd99dfd38a5c0e3ac5c99d903",
            "0x000000000000000000000000f39fd6e51aad88f6f4ce6ab8827279cfffb92266",
            "0x0000000000000000000000000000000000000000000000000000000000000000"
          ],
          "data": "0x000000000000000000000000f39fd6e51aad88f6f4ce6ab8827279cfffb92266000000000000000000000000000000000000000000000000000000003b9aca000000000000000000000000000000000000000000000000000000000000000002000000000000000000000000000000000000000000014966d5ec5b38c18e38e4",
          "blockHash": "0x17bceff4050c3b51ce942a0083e3296ae00c22cbb99bf9788b9b6a49eb503f50",
          "blockNumber": "0x786",
          "transactionHash": "0xd1408959c4f079d74612fef0ccb88c3f4bd9f46298e962398bee81ad494fcb9c",
          "transactionIndex": "0x4",
          "logIndex": "0x4",
          "removed": false
        }
      ],
      "logsBloom": "0x00000000000000004800000000000002000000000000100000000000000000000040000000000000000000000004000000000000000005000000000000000000000000000000040000000008000000000000000000000000000000040100000000000000020000000000000100000880000000000000000000000010000000000000000000000000000000000000000000000000000000000000000000000004000000000000000000000000000000000000000000000000000000000000012002000002000001200000002000000000000000002400040020000000000020000000000000000000000000000001002000000000000000000000000000000000",
      "type": "0x2",
      "transactionHash": "0xd1408959c4f079d74612fef0ccb88c3f4bd9f46298e962398bee81ad494fcb9c",
      "transactionIndex": "0x4",
      "blockHash": "0x17bceff4050c3b51ce942a0083e3296ae00c22cbb99bf9788b9b6a49eb503f50",
      "blockNumber": "0x786",
      "gasUsed": "0x3f399",
      "effectiveGasPrice": "0x8",
      "from": "0xf39fd6e51aad88f6f4ce6ab8827279cfffb92266",
      "to": "0x9bf8de4d71495eb9b14c983b4e368b54a5c8f5fc",
      "contractAddress": null
    }
  ],
  "libraries": [],
  "pending": [],
  "returns": {},
  "timestamp": 1748538344,
  "chain": 1337,
  "commit": "1a8a7fe"
}